{
  "_format": "hh-sol-artifact-1",
  "contractName": "APTAN",
  "sourceName": "contracts/APTAN.sol",
  "abi": [
    {
      "inputs": [
        {
          "internalType": "address",
          "name": "_mnee",
          "type": "address"
        }
      ],
      "stateMutability": "nonpayable",
      "type": "constructor"
    },
    {
      "anonymous": false,
      "inputs": [
        {
          "indexed": true,
          "internalType": "uint256",
          "name": "taskId",
          "type": "uint256"
        },
        {
          "indexed": true,
          "internalType": "address",
          "name": "agent",
          "type": "address"
        },
        {
          "indexed": false,
          "internalType": "uint256",
          "name": "amount",
          "type": "uint256"
        }
      ],
      "name": "PaymentReleased",
      "type": "event"
    },
    {
      "anonymous": false,
      "inputs": [
        {
          "indexed": true,
          "internalType": "uint256",
          "name": "taskId",
          "type": "uint256"
        },
        {
          "indexed": true,
          "internalType": "address",
          "name": "creator",
          "type": "address"
        },
        {
          "indexed": false,
          "internalType": "uint256",
          "name": "refundAmount",
          "type": "uint256"
        }
      ],
      "name": "TaskCancelled",
      "type": "event"
    },
    {
      "anonymous": false,
      "inputs": [
        {
          "indexed": true,
          "internalType": "uint256",
          "name": "taskId",
          "type": "uint256"
        },
        {
          "indexed": true,
          "internalType": "address",
          "name": "agent",
          "type": "address"
        },
        {
          "indexed": false,
          "internalType": "string",
          "name": "solution",
          "type": "string"
        }
      ],
      "name": "TaskCompleted",
      "type": "event"
    },
    {
      "anonymous": false,
      "inputs": [
        {
          "indexed": true,
          "internalType": "uint256",
          "name": "taskId",
          "type": "uint256"
        },
        {
          "indexed": true,
          "internalType": "address",
          "name": "creator",
          "type": "address"
        },
        {
          "indexed": false,
          "internalType": "uint256",
          "name": "reward",
          "type": "uint256"
        },
        {
          "indexed": false,
          "internalType": "string",
          "name": "description",
          "type": "string"
        },
        {
          "indexed": false,
          "internalType": "uint256",
          "name": "deadline",
          "type": "uint256"
        }
      ],
      "name": "TaskCreated",
      "type": "event"
    },
    {
      "inputs": [
        {
          "internalType": "address",
          "name": "",
          "type": "address"
        },
        {
          "internalType": "uint256",
          "name": "",
          "type": "uint256"
        }
      ],
      "name": "agentTasks",
      "outputs": [
        {
          "internalType": "uint256",
          "name": "",
          "type": "uint256"
        }
      ],
      "stateMutability": "view",
      "type": "function"
    },
    {
      "inputs": [
        {
          "internalType": "uint256",
          "name": "taskId",
          "type": "uint256"
        }
      ],
      "name": "cancelTask",
      "outputs": [],
      "stateMutability": "nonpayable",
      "type": "function"
    },
    {
      "inputs": [
        {
          "internalType": "string",
          "name": "description",
          "type": "string"
        },
        {
          "internalType": "uint256",
          "name": "reward",
          "type": "uint256"
        },
        {
          "internalType": "uint256",
          "name": "deadline",
          "type": "uint256"
        }
      ],
      "name": "createTask",
      "outputs": [],
      "stateMutability": "nonpayable",
      "type": "function"
    },
    {
      "inputs": [
        {
          "internalType": "address",
          "name": "agent",
          "type": "address"
        }
      ],
      "name": "getAgentTasks",
      "outputs": [
        {
          "internalType": "uint256[]",
          "name": "",
          "type": "uint256[]"
        }
      ],
      "stateMutability": "view",
      "type": "function"
    },
    {
      "inputs": [],
      "name": "getContractBalance",
      "outputs": [
        {
          "internalType": "uint256",
          "name": "",
          "type": "uint256"
        }
      ],
      "stateMutability": "view",
      "type": "function"
    },
    {
      "inputs": [],
      "name": "getPendingTasks",
      "outputs": [
        {
          "internalType": "uint256[]",
          "name": "",
          "type": "uint256[]"
        }
      ],
      "stateMutability": "view",
      "type": "function"
    },
    {
      "inputs": [
        {
          "internalType": "uint256",
          "name": "taskId",
          "type": "uint256"
        }
      ],
      "name": "getTask",
      "outputs": [
        {
          "components": [
            {
              "internalType": "address",
              "name": "creator",
              "type": "address"
            },
            {
              "internalType": "uint256",
              "name": "reward",
              "type": "uint256"
            },
            {
              "internalType": "string",
              "name": "description",
              "type": "string"
            },
            {
              "internalType": "uint256",
              "name": "deadline",
              "type": "uint256"
            },
            {
              "internalType": "bool",
              "name": "completed",
              "type": "bool"
            },
            {
              "internalType": "address",
              "name": "agent",
              "type": "address"
            },
            {
              "internalType": "string",
              "name": "solution",
              "type": "string"
            },
            {
              "internalType": "uint256",
              "name": "createdAt",
              "type": "uint256"
            }
          ],
          "internalType": "struct APTAN.Task",
          "name": "",
          "type": "tuple"
        }
      ],
      "stateMutability": "view",
      "type": "function"
    },
    {
      "inputs": [
        {
          "internalType": "address",
          "name": "user",
          "type": "address"
        }
      ],
      "name": "getUserTasks",
      "outputs": [
        {
          "internalType": "uint256[]",
          "name": "",
          "type": "uint256[]"
        }
      ],
      "stateMutability": "view",
      "type": "function"
    },
    {
      "inputs": [],
      "name": "mnee",
      "outputs": [
        {
          "internalType": "contract IERC20",
          "name": "",
          "type": "address"
        }
      ],
      "stateMutability": "view",
      "type": "function"
    },
    {
      "inputs": [
        {
          "internalType": "uint256",
          "name": "taskId",
          "type": "uint256"
        },
        {
          "internalType": "address",
          "name": "agent",
          "type": "address"
        },
        {
          "internalType": "string",
          "name": "solution",
          "type": "string"
        }
      ],
      "name": "submitResult",
      "outputs": [],
      "stateMutability": "nonpayable",
      "type": "function"
    },
    {
      "inputs": [],
      "name": "taskCounter",
      "outputs": [
        {
          "internalType": "uint256",
          "name": "",
          "type": "uint256"
        }
      ],
      "stateMutability": "view",
      "type": "function"
    },
    {
      "inputs": [
        {
          "internalType": "uint256",
          "name": "",
          "type": "uint256"
        }
      ],
      "name": "tasks",
      "outputs": [
        {
          "internalType": "address",
          "name": "creator",
          "type": "address"
        },
        {
          "internalType": "uint256",
          "name": "reward",
          "type": "uint256"
        },
        {
          "internalType": "string",
          "name": "description",
          "type": "string"
        },
        {
          "internalType": "uint256",
          "name": "deadline",
          "type": "uint256"
        },
        {
          "internalType": "bool",
          "name": "completed",
          "type": "bool"
        },
        {
          "internalType": "address",
          "name": "agent",
          "type": "address"
        },
        {
          "internalType": "string",
          "name": "solution",
          "type": "string"
        },
        {
          "internalType": "uint256",
          "name": "createdAt",
          "type": "uint256"
        }
      ],
      "stateMutability": "view",
      "type": "function"
    },
    {
      "inputs": [
        {
          "internalType": "address",
          "name": "",
          "type": "address"
        },
        {
          "internalType": "uint256",
          "name": "",
          "type": "uint256"
        }
      ],
      "name": "userTasks",
      "outputs": [
        {
          "internalType": "uint256",
          "name": "",
          "type": "uint256"
        }
      ],
      "stateMutability": "view",
      "type": "function"
    }
  ],
  "bytecode": "0x608060405234801561001057600080fd5b506040516117b83803806117b883398101604081905261002f916100ae565b6001600160a01b0381166100895760405162461bcd60e51b815260206004820152601460248201527f496e76616c6964204d4e45452061646472657373000000000000000000000000604482015260640160405180910390fd5b600080546001600160a01b0319166001600160a01b03929092169190911790556100de565b6000602082840312156100c057600080fd5b81516001600160a01b03811681146100d757600080fd5b9392505050565b6116cb806100ed6000396000f3fe608060405234801561001057600080fd5b50600436106100cf5760003560e01c806379b34cce1161008c57806395d576601161006657806395d57660146101bc578063b81db1c3146101dc578063c35b9030146101ef578063d8ea6821146101f757600080fd5b806379b34cce146101575780637eec20a8146101825780638d9776721461019557600080fd5b8063059378ea146100d45780631d65e77e146100e9578063586717301461011257806366873a5514610129578063670ad7821461013c5780636f9fb98a1461014f575b600080fd5b6100e76100e23660046111d8565b61020a565b005b6100fc6100f7366004611226565b6105a7565b6040516101099190611285565b60405180910390f35b61011b60015481565b604051908152602001610109565b61011b610137366004611343565b6107a0565b61011b61014a366004611343565b6107d1565b61011b6107ed565b60005461016a906001600160a01b031681565b6040516001600160a01b039091168152602001610109565b6100e7610190366004611226565b61085f565b6101a86101a3366004611226565b610ad5565b60405161010998979695949392919061136d565b6101cf6101ca3660046113db565b610c43565b60405161010991906113fd565b6100e76101ea366004611441565b610caf565b6101cf610f58565b6101cf6102053660046113db565b6110cb565b6000821161025f5760405162461bcd60e51b815260206004820152601d60248201527f526577617264206d7573742062652067726561746572207468616e203000000060448201526064015b60405180910390fd5b4281116102ae5760405162461bcd60e51b815260206004820152601e60248201527f446561646c696e65206d75737420626520696e207468652066757475726500006044820152606401610256565b600054604051636eb1769f60e11b815233600482015230602482015283916001600160a01b03169063dd62ed3e90604401602060405180830381865afa1580156102fc573d6000803e3d6000fd5b505050506040513d601f19601f820116820180604052508101906103209190611498565b10156103675760405162461bcd60e51b8152602060048201526016602482015275496e73756666696369656e7420616c6c6f77616e636560501b6044820152606401610256565b60018054906000610377836114b1565b9091555050604080516101008101825233815260208082018581528284018781526060840186905260006080850181905260a085018190528551808501875281815260c08601524260e0860152600180548252600294859052959020845181546001600160a01b0319166001600160a01b0390911617815591519482019490945592519192919082019061040b9082611561565b5060608201516003820155608082015160048201805460a08501516001600160a01b031661010002610100600160a81b0319931515939093166001600160a81b03199091161791909117905560c0820151600582019061046b9082611561565b5060e09190910151600690910155336000818152600360209081526040808320600180548254918201835591855292842090920191909155905490516323b872dd60e01b81526004810192909252306024830152604482018490526001600160a01b0316906323b872dd906064016020604051808303816000875af11580156104f8573d6000803e3d6000fd5b505050506040513d601f19601f8201168201806040525081019061051c9190611621565b61055a5760405162461bcd60e51b815260206004820152600f60248201526e151c985b9cd9995c8819985a5b1959608a1b6044820152606401610256565b336001600160a01b03166001547f4d3a604326ef203cfe75bbf36a7ab45d14860afaa64fa4f396549ca715e61c0284868560405161059a93929190611643565b60405180910390a3505050565b61060360405180610100016040528060006001600160a01b0316815260200160008152602001606081526020016000815260200160001515815260200160006001600160a01b0316815260200160608152602001600081525090565b60008281526002602081815260409283902083516101008101855281546001600160a01b031681526001820154928101929092529182018054919384019161064a906114d8565b80601f0160208091040260200160405190810160405280929190818152602001828054610676906114d8565b80156106c35780601f10610698576101008083540402835291602001916106c3565b820191906000526020600020905b8154815290600101906020018083116106a657829003601f168201915b505050918352505060038201546020820152600482015460ff81161515604083015261010090046001600160a01b0316606082015260058201805460809092019161070d906114d8565b80601f0160208091040260200160405190810160405280929190818152602001828054610739906114d8565b80156107865780601f1061075b57610100808354040283529160200191610786565b820191906000526020600020905b81548152906001019060200180831161076957829003601f168201915b505050505081526020016006820154815250509050919050565b600360205281600052604060002081815481106107bc57600080fd5b90600052602060002001600091509150505481565b600460205281600052604060002081815481106107bc57600080fd5b600080546040516370a0823160e01b81523060048201526001600160a01b03909116906370a0823190602401602060405180830381865afa158015610836573d6000803e3d6000fd5b505050506040513d601f19601f8201168201806040525081019061085a9190611498565b905090565b6000818152600260205260409020811580159061087e57506001548211155b6108bc5760405162461bcd60e51b815260206004820152600f60248201526e125b9d985b1a59081d185cdac81251608a1b6044820152606401610256565b600481015460ff161561090a5760405162461bcd60e51b815260206004820152601660248201527515185cdac8185b1c9958591e4818dbdb5c1b195d195960521b6044820152606401610256565b8060030154421161095d5760405162461bcd60e51b815260206004820152601c60248201527f5461736b20646561646c696e6520686173206e6f7420706173736564000000006044820152606401610256565b80546001600160a01b031633146109b65760405162461bcd60e51b815260206004820152601c60248201527f4f6e6c79207461736b2063726561746f722063616e2063616e63656c000000006044820152606401610256565b6004818101805460ff1916600190811790915560005483549184015460405163a9059cbb60e01b81526001600160a01b03938416948101949094526024840152169063a9059cbb906044016020604051808303816000875af1158015610a20573d6000803e3d6000fd5b505050506040513d601f19601f82011682018060405250810190610a449190611621565b610a895760405162461bcd60e51b81526020600482015260166024820152751499599d5b99081d1c985b9cd9995c8819985a5b195960521b6044820152606401610256565b805460018201546040519081526001600160a01b039091169083907f06f63d695245e4cf8f0b7aae0b8da95876a4b173ba8d0d4466cc83c357dda3a89060200160405180910390a35050565b60026020819052600091825260409091208054600182015492820180546001600160a01b03909216939291610b09906114d8565b80601f0160208091040260200160405190810160405280929190818152602001828054610b35906114d8565b8015610b825780601f10610b5757610100808354040283529160200191610b82565b820191906000526020600020905b815481529060010190602001808311610b6557829003601f168201915b50505050600383015460048401546005850180549495929460ff831694506101009092046001600160a01b03169291610bba906114d8565b80601f0160208091040260200160405190810160405280929190818152602001828054610be6906114d8565b8015610c335780601f10610c0857610100808354040283529160200191610c33565b820191906000526020600020905b815481529060010190602001808311610c1657829003601f168201915b5050505050908060060154905088565b6001600160a01b038116600090815260036020908152604091829020805483518184028101840190945280845260609392830182828015610ca357602002820191906000526020600020905b815481526020019060010190808311610c8f575b50505050509050919050565b6000838152600260205260409020600481015460ff1615610d0b5760405162461bcd60e51b815260206004820152601660248201527515185cdac8185b1c9958591e4818dbdb5c1b195d195960521b6044820152606401610256565b8060030154421115610d565760405162461bcd60e51b815260206004820152601460248201527315185cdac8191958591b1a5b99481c185cdcd95960621b6044820152606401610256565b600084118015610d6857506001548411155b610da65760405162461bcd60e51b815260206004820152600f60248201526e125b9d985b1a59081d185cdac81251608a1b6044820152606401610256565b6004810180546001600160a01b038516610100026001600160a81b031990911617600117905560058101610dda8382611561565b506001600160a01b0383811660008181526004602081815260408084208054600180820183559186529285209092018a9055925490860154925163a9059cbb60e01b815291820193909352602481019190915291169063a9059cbb906044016020604051808303816000875af1158015610e58573d6000803e3d6000fd5b505050506040513d601f19601f82011682018060405250810190610e7c9190611621565b610ec85760405162461bcd60e51b815260206004820152601760248201527f5061796d656e74207472616e73666572206661696c65640000000000000000006044820152606401610256565b826001600160a01b0316847f156ab7cd603565d08601ecdc345fe8e8aa82302e835d4df3bff0ec4f005809ed84604051610f02919061166c565b60405180910390a3826001600160a01b0316847f21d71db5be59bb9fa133895586b7404307dd33fb93b16db09dc6f1d9d7d231b08360010154604051610f4a91815260200190565b60405180910390a350505050565b6060600060015467ffffffffffffffff811115610f7757610f77611135565b604051908082528060200260200182016040528015610fa0578160200160208202803683370190505b509050600060015b60015481116110275760008181526002602052604090206004015460ff16158015610fe457506000818152600260205260409020600301544211155b156110155780838381518110610ffc57610ffc61167f565b602090810291909101015281611011816114b1565b9250505b8061101f816114b1565b915050610fa8565b5060008167ffffffffffffffff81111561104357611043611135565b60405190808252806020026020018201604052801561106c578160200160208202803683370190505b50905060005b828110156110c35783818151811061108c5761108c61167f565b60200260200101518282815181106110a6576110a661167f565b6020908102919091010152806110bb816114b1565b915050611072565b509392505050565b6001600160a01b038116600090815260046020908152604091829020805483518184028101840190945280845260609392830182828015610ca35760200282019190600052602060002090815481526020019060010190808311610c8f5750505050509050919050565b634e487b7160e01b600052604160045260246000fd5b600082601f83011261115c57600080fd5b813567ffffffffffffffff8082111561117757611177611135565b604051601f8301601f19908116603f0116810190828211818310171561119f5761119f611135565b816040528381528660208588010111156111b857600080fd5b836020870160208301376000602085830101528094505050505092915050565b6000806000606084860312156111ed57600080fd5b833567ffffffffffffffff81111561120457600080fd5b6112108682870161114b565b9660208601359650604090950135949350505050565b60006020828403121561123857600080fd5b5035919050565b6000815180845260005b8181101561126557602081850181015186830182015201611249565b506000602082860101526020601f19601f83011685010191505092915050565b6020815260018060a01b03825116602082015260208201516040820152600060408301516101008060608501526112c061012085018361123f565b91506060850151608085015260808501516112df60a086018215159052565b5060a08501516001600160a01b03811660c08601525060c0850151848303601f190160e0860152611310838261123f565b92505060e085015181850152508091505092915050565b80356001600160a01b038116811461133e57600080fd5b919050565b6000806040838503121561135657600080fd5b61135f83611327565b946020939093013593505050565b6001600160a01b038981168252602082018990526101006040830181905260009161139a8483018b61123f565b9150886060850152871515608085015280871660a08501525082810360c08401526113c5818661123f565b9150508260e08301529998505050505050505050565b6000602082840312156113ed57600080fd5b6113f682611327565b9392505050565b6020808252825182820181905260009190848201906040850190845b8181101561143557835183529284019291840191600101611419565b50909695505050505050565b60008060006060848603121561145657600080fd5b8335925061146660208501611327565b9150604084013567ffffffffffffffff81111561148257600080fd5b61148e8682870161114b565b9150509250925092565b6000602082840312156114aa57600080fd5b5051919050565b6000600182016114d157634e487b7160e01b600052601160045260246000fd5b5060010190565b600181811c908216806114ec57607f821691505b60208210810361150c57634e487b7160e01b600052602260045260246000fd5b50919050565b601f82111561155c57600081815260208120601f850160051c810160208610156115395750805b601f850160051c820191505b8181101561155857828155600101611545565b5050505b505050565b815167ffffffffffffffff81111561157b5761157b611135565b61158f8161158984546114d8565b84611512565b602080601f8311600181146115c457600084156115ac5750858301515b600019600386901b1c1916600185901b178555611558565b600085815260208120601f198616915b828110156115f3578886015182559484019460019091019084016115d4565b50858210156116115787850151600019600388901b60f8161c191681555b5050505050600190811b01905550565b60006020828403121561163357600080fd5b815180151581146113f657600080fd5b83815260606020820152600061165c606083018561123f565b9050826040830152949350505050565b6020815260006113f6602083018461123f565b634e487b7160e01b600052603260045260246000fdfea264697066735822122025f8d3064ba68eb0b3c3ba6652aa3e6ec1130a7e994377c5ac4c5e07254f49f064736f6c63430008140033",
  "linkReferences": {},
  "deployedLinkReferences": {}
}